:020000040800F2
:1000000000500020090E0008510E0008510E000893
:10001000510E0008510E0008510E000800000000AB
:10002000000000000000000000000000510E000869
:10003000510E000800000000510E00081D0D0008C0
:10004000510E0008510E0008510E0008510E000814
:10005000510E0008510E0008510E0008510E000804
:10006000510E0008CD0D0008510E0008510E000879
:10007000510E0008510E0008510E0008510E0008E4
:10008000510E0008510E0008510E0008510E0008D4
:10009000510E0008510E0008510E00082D0D0008E9
:1000A000510E0008510E0008510E0008510E0008B4
:1000B000510E0008510E0008510E0008510E0008A4
:1000C000510E0008510E0008510E0008510E000894
:1000D000510E0008510E0008510E0008510E000884
:1000E000510E0008510E0008510E000800000000DB
:1000F0000000000000000000000000000000000000
:0C01000000000000000000005FF808F1A3
:10010C004FF0FF0C1CEAD0521EBF1CEAD15392EAEE
:10011C000C0F93EA0C0F6FD01A4480EA010C4002CA
:10012C0018BF5FEA41211ED04FF0006343EA501024
:10013C0043EA5111A0FB01310CF00040B1F5000F66
:10014C003EBF490041EAD3715B0040EA010062F115
:10015C007F02FD2A1DD8B3F1004F40EBC25008BFFF
:10016C0020F00100704790F0000F0CF0004C08BF1D
:10017C0049024CEA502040EA51207F3AC2BFD2F1EA
:10018C00FF0340EAC250704740F400004FF00003F8
:10019C00013A5DDC12F1190FDCBF00F00040704732
:1001AC00C2F10002410021FA02F1C2F1200200FA70
:1001BC0002FC5FEA310040F1000053EA4C0308BF37
:1001CC0020EADC70704792F0000F00F0004C02BF88
:1001DC00400010F4000F013AF9D040EA0C0093F003
:1001EC00000F01F0004C02BF490011F4000F013B5D
:1001FC00F9D041EA0C018FE70CEAD15392EA0C0FCB
:10020C0018BF93EA0C0F0AD030F0004C18BF31F035
:10021C00004CD8D180EA010000F00040704790F00B
:10022C00000F17BF90F0004F084691F0000F91F0AF
:10023C00004F14D092EA0C0F01D142020FD193EA75
:10024C000C0F03D14B0218BF084608D180EA0100FD
:10025C0000F0004040F0FE4040F40000704740F0D9
:10026C00FE4040F4400070474FF0FF0C1CEAD052A7
:10027C001EBF1CEAD15392EA0C0F93EA0C0F69D003
:10028C00A2EB030280EA010C49024FEA402037D06E
:10029C004FF0805343EA111143EA10130CF0004065
:1002AC008B4238BF5B0042F17D024FF4000C8B4255
:1002BC0024BF5B1A40EA0C00B3EB510F24BFA3EB35
:1002CC00510340EA5C00B3EB910F24BFA3EB910305
:1002DC0040EA9C00B3EBD10F24BFA3EBD10340EA5F
:1002EC00DC001B0118BF5FEA1C1CE0D1FD2A3FF6A5
:1002FC0050AF8B4240EBC25008BF20F0010070475A
:10030C000CF0004C4CEA50207F32C2BFD2F1FF03FC
:10031C0040EAC250704740F400004FF00003013A2D
:10032C0037E792F0000F00F0004C02BF400010F4D1
:10033C00000F013AF9D040EA0C0093F0000F01F0E5
:10034C00004C02BF490011F4000F013BF9D041EA07
:10035C000C0195E70CEAD15392EA0C0F08D142023A
:10036C007FF47DAF93EA0C0F7FF470AF084676E70D
:10037C0093EA0C0F04D14B023FF44CAF08466EE7E6
:10038C0030F0004C18BF31F0004CCAD130F00042B4
:10039C007FF45CAF31F000437FF43CAF5FE700BF0C
:1003AC0042000ED2B2F1FE4F0BD34FF09E03B3EBD3
:1003BC00126209D44FEA002343F0004323FA02F0FF
:1003CC0070474FF00000704712F1610F01D14202EB
:1003DC0002D14FF0FF3070474FF00000704700BF64
:1003EC000348044B834202D0034B03B118477047B8
:1003FC001C0000201C000020000000000548064BDB
:10040C001B1AD90F01EBA301491002D0034B03B106
:10041C00184770471C0000201C0000200000000042
:10042C0010B5064C237843B9FFF7DAFF044B13B130
:10043C000448AFF300800123237010BD1C00002082
:10044C00000000009C0E000808B5054B1BB10549C7
:10045C000548AFF30080BDE80840FFF7CFBF00BFF1
:10046C0000000000200000209C0E000870470000D7
:10047C00674B1A8892B2674B1B889BB29A4220D06A
:10048C00654B1A68654B1B889BB2D21A644B1B8850
:10049C009BB29A4215D3634A13889BB201339BB229
:1004AC0013805C4B1B889BB259490B80138813F04B
:1004BC00010F06D05C4A1378DBB2B3FA83F35B0905
:1004CC0013705A4B1A8892B2594B1B889BB29A42A2
:1004DC0031D0514B1A68574B1B889BB2D21A504BD8
:1004EC001B889BB29A4226D3534A13889BB2013382
:1004FC009BB213804E4B1B889BB24C490B80464BD6
:10050C001B689BB24B490B80138813F0010F12D060
:10051C00454B1B785BB9494A13780133DBB2137036
:10052C001378022B07D9134600221A7003E03E4BB6
:10053C001B78012B58D0424B1A8892B2414B1B8826
:10054C009BB29A422CD0344B1A683F4B1B889BB2FF
:10055C00D21A334B1B889BB29A4221D33B4A138845
:10056C009BB201339BB21380364B1B889BB2344930
:10057C000B80294B1B689BB233490B80138813F0FB
:10058C00010F0DD0284B1B7853B1314A137801332E
:10059C00DBB213701378052B02D9134600221A70A4
:1005AC002C4B1A8892B22C4B1B889BB29A421AD0B5
:1005BC00194B1A68294B1B889BB2D21A184B1B88F3
:1005CC009BB29A420FD3264A13889BB201339BB23B
:1005DC001380214B1B889BB21E4A13800E4B1B6849
:1005EC009BB21E4A1380704719480278D2B21D493B
:1005FC008B5C0133DBB28B540378DBB2CB5C022B0C
:10060C0099D90378DBB20A460021D15493E700BF95
:10061C008E00002096000020A00000207E0000200C
:10062C001800002086000020770000209000002099
:10063C009800002080000020880000207600002018
:10064C00920000209A000020820000208A000020E6
:10065C006E000020940000209C00002084000020EC
:10066C008C00002070000020384B1B78002B32D0FF
:10067C00374A136943F001031361364B1B78002B87
:10068C0033D0334A136943F002031361324B1B78A6
:10069C00002B34D02E4A136943F0040313612F4B03
:1006AC001B78002B35D02A4A136943F020031361C1
:1006BC002B4B1B78002B36D0254A136943F0400393
:1006CC001361284B1B78002B37D0214A136943F058
:1006DC008003136170471D4B1B78002BCDD11C4A36
:1006EC00136943F480331361C7E71A4B1B78002B53
:1006FC00CCD1174A136943F400331361C6E7164B88
:10070C001B78002BCBD1124A136943F4802313615D
:10071C00C5E7124B1B78002BCAD10D4A136943F461
:10072C0000131361C4E70E4B1B78002BC9D1084A88
:10073C00136943F480031361C3E70A4B1B7823B995
:10074C00034A136943F40003136170477D000020D2
:10075C00000801407C0000207B0000207A00002073
:10076C00790000207800002008B501464FF07E503B
:10077C00FFF77AFD0249FFF7C3FCFFF711FE08BD36
:10078C0000007A440023064A1370064A1370064A86
:10079C001370064A1370064A1370064A137070479A
:1007AC007B0000207A0000207D0000207C000020CF
:1007BC00790000207800002008B5204B1B78DBB2B4
:1007CC001F4A52F82300FFF7CFFF1E4B18801E4B19
:1007DC001B681E4A12689B1A80B283420DD31C4AB6
:1007EC00138801339BB21380174A1168174A1160A2
:1007FC00022B02D9164B00221A80154B1B8823B1F1
:10080C00012B0AD0022B10D008BDFFF7BBFF012330
:10081C00104A1370104A1370F6E7FFF7B3FF012369
:10082C000E4A13700E4A1370EEE7FFF7ABFF01236D
:10083C000C4A13700C4A1370E6E700BF76000020D8
:10084C000C0000206C000020A0000020680000209C
:10085C00640000207B0000207A0000207C00002037
:10086C00790000207D0000207800002010B50024C5
:10087C000CE0204B1B5DDBB21F4A52F82300FFF744
:10088C0073FF1E4B23F814000134E4B2052CF0D98D
:10089C00002301E00133DBB2052B16D8174A32F8DE
:1008AC001310174A1268174850F82300121A914275
:1008BC00F0D81549CA5CB2FA82F25209CA54104AED
:1008CC001168104A42F82310E4E70F4B19780F4ACD
:1008DC00117059780E4A117099780E4A1170D978A6
:1008EC000D4A117019790D4A11705A790C4B1A7006
:1008FC0010BD00BF70000020000000205800002038
:10090C00A000002040000020380000207D000020C6
:10091C007C0000207B0000207A0000207900002061
:10092C007800002008B500F05DF900F0D9F800F06F
:10093C0055F800F034F802E0084B1B7853B9FFF778
:10094C0097FDFFF791FE054B1B78002BF4D1FFF7B9
:10095C0033FFF4E7FFF78AFFF1E700BF77000020D1
:10096C0000B500F00700C0F1070CBCF1040F28BF64
:10097C004FF0040C031D062B0FD9C31E4FF0FF3E86
:10098C000EFA0CF021EA000199400EFA03FE22EA5D
:10099C000E0241EA02005DF804FB0023EEE74FF083
:1009AC00E0231A6922F001021A611A6942F002026C
:1009BC001A611A6942F004021A615A6902F07F4204
:1009CC004BF67F310A435A615A6902F07F420A435F
:1009DC005A611A6942F001021A617047F8B53B4A34
:1009EC00936943F001039361394D2B6923F0F003B4
:1009FC002B612B6943F010032B61364C236843F4B5
:100A0C0000732360A36843F40073A360E36843F4AA
:100A1C000073E360EB6823F47043EB60EB6843F422
:100A2C008053EB60236843F080032360A36843F09A
:100A3C008003A360E36843F08003E360EB6823F07A
:100A4C00F003EB60EB6843F01003EB60236843F0BA
:100A5C0020032360A36843F02003A360E36843F002
:100A6C002003E3601C4FF86800221146C0F30220FB
:100A7C00FFF776FF0001C0B2184E86F817034FF44B
:100A8C0000033360AB6823F47043AB60AB6843F492
:100A9C008053AB60236843F008032360A36843F0E2
:100AAC000803A360E36843F00803E360F8680022DE
:100ABC001146C0F30220FFF753FF0001C0B286F8C5
:100ACC0009034FF400733360F8BD00BF00100240FF
:100ADC00000001400004014000ED00E000E100E0F6
:100AEC003E4A136823F0F80343F08003136000239D
:100AFC0053603A4B5B6813F00C0FFAD1374A13680A
:100B0C0023F080731360354B1B6813F0007FFAD110
:100B1C00324A136823F410231360304B1B6813F410
:100B2C00003FFAD12D4B1A6822F480221A601A6801
:100B3C0042F480321A60294B1B6813F4003FFAD040
:100B4C00264B1A6822F480221A601A6842F400229A
:100B5C001A605A6842F480325A605A6842F4003281
:100B6C005A605A6822F4701242F420125A601A68C1
:100B7C0042F080721A60194B1B6813F0007FFAD098
:100B8C00164A536823F0030343F002035360134BDC
:100B9C005B6803F00C03082BF9D1104B5A6822F058
:100BAC00F0025A605A6822F4E06242F480625A60A1
:100BBC005A6822F460525A605A6822F4404242F455
:100BCC0080425A605A6842F0E0625A60044A1368E4
:100BDC0023F0070343F00203136070470010024038
:100BEC000020024047498B6943F004038B61464B5C
:100BFC005A6822F00F025A605A6842F00B025A608F
:100C0C001A6822F0030242F001021A601A6822F0FC
:100C1C000C021A601A6822F0300242F010021A60BC
:100C2C001A6822F0C0021A601A6822F4407242F468
:100C3C0080721A601A6822F440621A601A6822F4F0
:100C4C00401242F480121A601A6822F440021A60B0
:100C5C001A6822F0407242F080721A601A6822F010
:100C6C0040621A601A6822F0405242F080521A60B8
:100C7C001A6822F040421A608B6943F008038B61BA
:100C8C00224B1A6822F440421A601A6822F440522D
:100C9C001A601A6842F400421A60DA6822F00802FC
:100CAC00DA601A6822F440021A601A6822F44012C0
:100CBC001A601A6842F400021A60DA6822F0200204
:100CCC00DA601A6822F040421A601A6822F0405228
:100CDC001A601A6842F000421A60DA6822F0800248
:100CEC00DA605A6822F0C0025A605A6822F0300268
:100CFC005A605A6842F080025A60DA6822F4007234
:100D0C00DA6070470010024000080140000C0140FE
:100D1C00024A136801331360704700BFA000002023
:100D2C001F4B5B6913F4007F0FD01E4A13889BB2D4
:100D3C0001339BB213801C4B1B689BB21B4A138064
:100D4C00174A536943F400735361154B5B6913F0F5
:100D5C00800F0FD0164A13889BB201339BB21380BD
:100D6C00114B1B689BB2134A13800D4A536943F015
:100D7C00800353610A4B5B6913F0200F0FD00E4AAE
:100D8C0013889BB201339BB21380074B1B689BB239
:100D9C000A4A1380024A536943F020035361704797
:100DAC00000401409C000020A000002084000020D2
:100DBC009A00002082000020980000208000002073
:100DCC000A4B5B6913F0080F0FD0094A13889BB2CA
:100DDC0001339BB21380074B1B689BB2064A1380EE
:100DEC00024A536943F00803536170470004014001
:100DFC0096000020A00000207E000020FFF736FBAC
:100E0C000B480C490C4A002302E0D458C45004335C
:100E1C00C4188C42F9D3094A094C002301E0136031
:100E2C000432A242FBD300F00FF8FFF77BFD7047B2
:100E3C00000000201C000020BC0E00081C0000203C
:100E4C00A4000020FEE7000070B500260C4D0D4BF1
:100E5C005B1B9C10A64209D1002600F019F80A4D24
:100E6C000A4B5B1B9C10A64205D170BD55F8043B88
:100E7C0098470136EEE755F8043B98470136F2E700
:100E8C00B40E0008B40E0008B40E0008B80E00082A
:100E9C00F8B500BFF8BC08BC9E467047F8B500BF5B
:080EAC00F8BC08BC9E4670472B
:040EB40055040008D9
:040EB8002D040008FD
:100EBC009A99993ECDCC4C3F3333B33F0000003F61
:0C0ECC009A99D93FCDCC0C40500000009A
:0400000508000E09D8
:00000001FF
